{
  "contractName": "NftToken",
  "abi": [
    {
      "inputs": [
        {
          "internalType": "string",
          "name": "_name",
          "type": "string"
        },
        {
          "internalType": "string",
          "name": "_symbol",
          "type": "string"
        }
      ],
      "stateMutability": "nonpayable",
      "type": "constructor"
    },
    {
      "anonymous": false,
      "inputs": [
        {
          "indexed": true,
          "internalType": "address",
          "name": "owner",
          "type": "address"
        },
        {
          "indexed": true,
          "internalType": "address",
          "name": "approved",
          "type": "address"
        },
        {
          "indexed": true,
          "internalType": "uint256",
          "name": "tokenId",
          "type": "uint256"
        }
      ],
      "name": "Approval",
      "type": "event"
    },
    {
      "anonymous": false,
      "inputs": [
        {
          "indexed": true,
          "internalType": "address",
          "name": "owner",
          "type": "address"
        },
        {
          "indexed": true,
          "internalType": "address",
          "name": "operator",
          "type": "address"
        },
        {
          "indexed": false,
          "internalType": "bool",
          "name": "approved",
          "type": "bool"
        }
      ],
      "name": "ApprovalForAll",
      "type": "event"
    },
    {
      "anonymous": false,
      "inputs": [
        {
          "indexed": true,
          "internalType": "address",
          "name": "owner",
          "type": "address"
        },
        {
          "indexed": false,
          "internalType": "uint256",
          "name": "id",
          "type": "uint256"
        },
        {
          "indexed": false,
          "internalType": "uint256",
          "name": "dna",
          "type": "uint256"
        }
      ],
      "name": "NewNft",
      "type": "event"
    },
    {
      "anonymous": false,
      "inputs": [
        {
          "indexed": true,
          "internalType": "address",
          "name": "previousOwner",
          "type": "address"
        },
        {
          "indexed": true,
          "internalType": "address",
          "name": "newOwner",
          "type": "address"
        }
      ],
      "name": "OwnershipTransferred",
      "type": "event"
    },
    {
      "anonymous": false,
      "inputs": [
        {
          "indexed": true,
          "internalType": "address",
          "name": "from",
          "type": "address"
        },
        {
          "indexed": true,
          "internalType": "address",
          "name": "to",
          "type": "address"
        },
        {
          "indexed": true,
          "internalType": "uint256",
          "name": "tokenId",
          "type": "uint256"
        }
      ],
      "name": "Transfer",
      "type": "event"
    },
    {
      "inputs": [
        {
          "internalType": "address",
          "name": "to",
          "type": "address"
        },
        {
          "internalType": "uint256",
          "name": "tokenId",
          "type": "uint256"
        }
      ],
      "name": "approve",
      "outputs": [],
      "stateMutability": "nonpayable",
      "type": "function"
    },
    {
      "inputs": [
        {
          "internalType": "address",
          "name": "owner",
          "type": "address"
        }
      ],
      "name": "balanceOf",
      "outputs": [
        {
          "internalType": "uint256",
          "name": "",
          "type": "uint256"
        }
      ],
      "stateMutability": "view",
      "type": "function",
      "constant": true
    },
    {
      "inputs": [
        {
          "internalType": "uint256",
          "name": "tokenId",
          "type": "uint256"
        }
      ],
      "name": "getApproved",
      "outputs": [
        {
          "internalType": "address",
          "name": "",
          "type": "address"
        }
      ],
      "stateMutability": "view",
      "type": "function",
      "constant": true
    },
    {
      "inputs": [
        {
          "internalType": "address",
          "name": "owner",
          "type": "address"
        },
        {
          "internalType": "address",
          "name": "operator",
          "type": "address"
        }
      ],
      "name": "isApprovedForAll",
      "outputs": [
        {
          "internalType": "bool",
          "name": "",
          "type": "bool"
        }
      ],
      "stateMutability": "view",
      "type": "function",
      "constant": true
    },
    {
      "inputs": [],
      "name": "name",
      "outputs": [
        {
          "internalType": "string",
          "name": "",
          "type": "string"
        }
      ],
      "stateMutability": "view",
      "type": "function",
      "constant": true
    },
    {
      "inputs": [
        {
          "internalType": "uint256",
          "name": "",
          "type": "uint256"
        }
      ],
      "name": "nfts",
      "outputs": [
        {
          "internalType": "string",
          "name": "name",
          "type": "string"
        },
        {
          "internalType": "uint256",
          "name": "id",
          "type": "uint256"
        },
        {
          "internalType": "uint256",
          "name": "dna",
          "type": "uint256"
        },
        {
          "internalType": "uint8",
          "name": "level",
          "type": "uint8"
        },
        {
          "internalType": "uint8",
          "name": "rarity",
          "type": "uint8"
        }
      ],
      "stateMutability": "view",
      "type": "function",
      "constant": true
    },
    {
      "inputs": [],
      "name": "owner",
      "outputs": [
        {
          "internalType": "address",
          "name": "",
          "type": "address"
        }
      ],
      "stateMutability": "view",
      "type": "function",
      "constant": true
    },
    {
      "inputs": [
        {
          "internalType": "uint256",
          "name": "tokenId",
          "type": "uint256"
        }
      ],
      "name": "ownerOf",
      "outputs": [
        {
          "internalType": "address",
          "name": "",
          "type": "address"
        }
      ],
      "stateMutability": "view",
      "type": "function",
      "constant": true
    },
    {
      "inputs": [],
      "name": "renounceOwnership",
      "outputs": [],
      "stateMutability": "nonpayable",
      "type": "function"
    },
    {
      "inputs": [
        {
          "internalType": "address",
          "name": "from",
          "type": "address"
        },
        {
          "internalType": "address",
          "name": "to",
          "type": "address"
        },
        {
          "internalType": "uint256",
          "name": "tokenId",
          "type": "uint256"
        }
      ],
      "name": "safeTransferFrom",
      "outputs": [],
      "stateMutability": "nonpayable",
      "type": "function"
    },
    {
      "inputs": [
        {
          "internalType": "address",
          "name": "from",
          "type": "address"
        },
        {
          "internalType": "address",
          "name": "to",
          "type": "address"
        },
        {
          "internalType": "uint256",
          "name": "tokenId",
          "type": "uint256"
        },
        {
          "internalType": "bytes",
          "name": "_data",
          "type": "bytes"
        }
      ],
      "name": "safeTransferFrom",
      "outputs": [],
      "stateMutability": "nonpayable",
      "type": "function"
    },
    {
      "inputs": [
        {
          "internalType": "address",
          "name": "operator",
          "type": "address"
        },
        {
          "internalType": "bool",
          "name": "approved",
          "type": "bool"
        }
      ],
      "name": "setApprovalForAll",
      "outputs": [],
      "stateMutability": "nonpayable",
      "type": "function"
    },
    {
      "inputs": [
        {
          "internalType": "bytes4",
          "name": "interfaceId",
          "type": "bytes4"
        }
      ],
      "name": "supportsInterface",
      "outputs": [
        {
          "internalType": "bool",
          "name": "",
          "type": "bool"
        }
      ],
      "stateMutability": "view",
      "type": "function",
      "constant": true
    },
    {
      "inputs": [],
      "name": "symbol",
      "outputs": [
        {
          "internalType": "string",
          "name": "",
          "type": "string"
        }
      ],
      "stateMutability": "view",
      "type": "function",
      "constant": true
    },
    {
      "inputs": [
        {
          "internalType": "uint256",
          "name": "tokenId",
          "type": "uint256"
        }
      ],
      "name": "tokenURI",
      "outputs": [
        {
          "internalType": "string",
          "name": "",
          "type": "string"
        }
      ],
      "stateMutability": "view",
      "type": "function",
      "constant": true
    },
    {
      "inputs": [
        {
          "internalType": "address",
          "name": "from",
          "type": "address"
        },
        {
          "internalType": "address",
          "name": "to",
          "type": "address"
        },
        {
          "internalType": "uint256",
          "name": "tokenId",
          "type": "uint256"
        }
      ],
      "name": "transferFrom",
      "outputs": [],
      "stateMutability": "nonpayable",
      "type": "function"
    },
    {
      "inputs": [
        {
          "internalType": "address",
          "name": "newOwner",
          "type": "address"
        }
      ],
      "name": "transferOwnership",
      "outputs": [],
      "stateMutability": "nonpayable",
      "type": "function"
    },
    {
      "inputs": [
        {
          "internalType": "uint256",
          "name": "_fee",
          "type": "uint256"
        }
      ],
      "name": "updateFee",
      "outputs": [],
      "stateMutability": "nonpayable",
      "type": "function"
    },
    {
      "inputs": [],
      "name": "withdraw",
      "outputs": [],
      "stateMutability": "payable",
      "type": "function",
      "payable": true
    },
    {
      "inputs": [
        {
          "internalType": "string",
          "name": "_name",
          "type": "string"
        }
      ],
      "name": "createRandomNft",
      "outputs": [],
      "stateMutability": "payable",
      "type": "function",
      "payable": true
    },
    {
      "inputs": [],
      "name": "getNfts",
      "outputs": [
        {
          "components": [
            {
              "internalType": "string",
              "name": "name",
              "type": "string"
            },
            {
              "internalType": "uint256",
              "name": "id",
              "type": "uint256"
            },
            {
              "internalType": "uint256",
              "name": "dna",
              "type": "uint256"
            },
            {
              "internalType": "uint8",
              "name": "level",
              "type": "uint8"
            },
            {
              "internalType": "uint8",
              "name": "rarity",
              "type": "uint8"
            }
          ],
          "internalType": "struct NftToken.Nft[]",
          "name": "",
          "type": "tuple[]"
        }
      ],
      "stateMutability": "view",
      "type": "function",
      "constant": true
    },
    {
      "inputs": [
        {
          "internalType": "address",
          "name": "_owner",
          "type": "address"
        }
      ],
      "name": "getOwnerNfts",
      "outputs": [
        {
          "components": [
            {
              "internalType": "string",
              "name": "name",
              "type": "string"
            },
            {
              "internalType": "uint256",
              "name": "id",
              "type": "uint256"
            },
            {
              "internalType": "uint256",
              "name": "dna",
              "type": "uint256"
            },
            {
              "internalType": "uint8",
              "name": "level",
              "type": "uint8"
            },
            {
              "internalType": "uint8",
              "name": "rarity",
              "type": "uint8"
            }
          ],
          "internalType": "struct NftToken.Nft[]",
          "name": "",
          "type": "tuple[]"
        }
      ],
      "stateMutability": "view",
      "type": "function",
      "constant": true
    },
    {
      "inputs": [
        {
          "internalType": "uint256",
          "name": "_nftId",
          "type": "uint256"
        }
      ],
      "name": "levelUp",
      "outputs": [],
      "stateMutability": "nonpayable",
      "type": "function"
    }
  ],
  "bytecode": "0x6080604052662386f26fc100006008553480156200001c57600080fd5b5060405162003ef038038062003ef0833981810160405281019062000042919062000290565b818181600090805190602001906200005c9291906200016e565b508060019080519060200190620000759291906200016e565b505050620000986200008c620000a060201b60201c565b620000a860201b60201c565b505062000473565b600033905090565b6000600660009054906101000a900473ffffffffffffffffffffffffffffffffffffffff16905081600660006101000a81548173ffffffffffffffffffffffffffffffffffffffff021916908373ffffffffffffffffffffffffffffffffffffffff1602179055508173ffffffffffffffffffffffffffffffffffffffff168173ffffffffffffffffffffffffffffffffffffffff167f8be0079c531659141344cd1fd0a4f28419497f9722a3daafe3b4186f6b6457e060405160405180910390a35050565b8280546200017c9062000398565b90600052602060002090601f016020900481019282620001a05760008555620001ec565b82601f10620001bb57805160ff1916838001178555620001ec565b82800160010185558215620001ec579182015b82811115620001eb578251825591602001919060010190620001ce565b5b509050620001fb9190620001ff565b5090565b5b808211156200021a57600081600090555060010162000200565b5090565b6000620002356200022f846200032c565b62000303565b9050828152602081018484840111156200024e57600080fd5b6200025b84828562000362565b509392505050565b600082601f8301126200027557600080fd5b8151620002878482602086016200021e565b91505092915050565b60008060408385031215620002a457600080fd5b600083015167ffffffffffffffff811115620002bf57600080fd5b620002cd8582860162000263565b925050602083015167ffffffffffffffff811115620002eb57600080fd5b620002f98582860162000263565b9150509250929050565b60006200030f62000322565b90506200031d8282620003ce565b919050565b6000604051905090565b600067ffffffffffffffff8211156200034a576200034962000433565b5b620003558262000462565b9050602081019050919050565b60005b838110156200038257808201518184015260208101905062000365565b8381111562000392576000848401525b50505050565b60006002820490506001821680620003b157607f821691505b60208210811415620003c857620003c762000404565b5b50919050565b620003d98262000462565b810181811067ffffffffffffffff82111715620003fb57620003fa62000433565b5b80604052505050565b7f4e487b7100000000000000000000000000000000000000000000000000000000600052602260045260246000fd5b7f4e487b7100000000000000000000000000000000000000000000000000000000600052604160045260246000fd5b6000601f19601f8301169050919050565b613a6d80620004836000396000f3fe6080604052600436106101405760003560e01c80636352211e116100b6578063a22cb4651161006f578063a22cb46514610442578063b88d4fde1461046b578063c87b56dd14610494578063d8cb55e3146104d1578063e985e9c5146104fc578063f2fde38b1461053957610140565b80636352211e1461033257806370a082311461036f578063715018a6146103ac5780638da5cb5b146103c35780639012c4a8146103ee57806395d89b411461041757610140565b80632292d6ea116101085780632292d6ea1461023c57806323b872dd14610279578063265aa621146102a25780633ccfd60b146102e35780633f2eedd8146102ed57806342842e0e1461030957610140565b806301ffc9a71461014557806306fdde0314610182578063081812fc146101ad578063095ea7b3146101ea5780630ce90ec214610213575b600080fd5b34801561015157600080fd5b5061016c600480360381019061016791906127df565b610562565b6040516101799190612e07565b60405180910390f35b34801561018e57600080fd5b50610197610644565b6040516101a49190612e22565b60405180910390f35b3480156101b957600080fd5b506101d460048036038101906101cf9190612872565b6106d6565b6040516101e19190612d7e565b60405180910390f35b3480156101f657600080fd5b50610211600480360381019061020c91906127a3565b61075b565b005b34801561021f57600080fd5b5061023a60048036038101906102359190612872565b610873565b005b34801561024857600080fd5b50610263600480360381019061025e9190612638565b61093d565b6040516102709190612de5565b60405180910390f35b34801561028557600080fd5b506102a0600480360381019061029b919061269d565b610bb6565b005b3480156102ae57600080fd5b506102c960048036038101906102c49190612872565b610c16565b6040516102da959493929190612e44565b60405180910390f35b6102eb610cfe565b005b61030760048036038101906103029190612831565b610dd0565b005b34801561031557600080fd5b50610330600480360381019061032b919061269d565b610deb565b005b34801561033e57600080fd5b5061035960048036038101906103549190612872565b610e0b565b6040516103669190612d7e565b60405180910390f35b34801561037b57600080fd5b5061039660048036038101906103919190612638565b610ebd565b6040516103a3919061309e565b60405180910390f35b3480156103b857600080fd5b506103c1610f75565b005b3480156103cf57600080fd5b506103d8610ffd565b6040516103e59190612d7e565b60405180910390f35b3480156103fa57600080fd5b5061041560048036038101906104109190612872565b611027565b005b34801561042357600080fd5b5061042c6110ad565b6040516104399190612e22565b60405180910390f35b34801561044e57600080fd5b5061046960048036038101906104649190612767565b61113f565b005b34801561047757600080fd5b50610492600480360381019061048d91906126ec565b611155565b005b3480156104a057600080fd5b506104bb60048036038101906104b69190612872565b6111b7565b6040516104c89190612e22565b60405180910390f35b3480156104dd57600080fd5b506104e661125e565b6040516104f39190612de5565b60405180910390f35b34801561050857600080fd5b50610523600480360381019061051e9190612661565b61139d565b6040516105309190612e07565b60405180910390f35b34801561054557600080fd5b50610560600480360381019061055b9190612638565b611431565b005b60007f80ac58cd000000000000000000000000000000000000000000000000000000007bffffffffffffffffffffffffffffffffffffffffffffffffffffffff1916827bffffffffffffffffffffffffffffffffffffffffffffffffffffffff1916148061062d57507f5b5e139f000000000000000000000000000000000000000000000000000000007bffffffffffffffffffffffffffffffffffffffffffffffffffffffff1916827bffffffffffffffffffffffffffffffffffffffffffffffffffffffff1916145b8061063d575061063c82611529565b5b9050919050565b60606000805461065390613374565b80601f016020809104026020016040519081016040528092919081815260200182805461067f90613374565b80156106cc5780601f106106a1576101008083540402835291602001916106cc565b820191906000526020600020905b8154815290600101906020018083116106af57829003601f168201915b5050505050905090565b60006106e182611593565b610720576040517f08c379a000000000000000000000000000000000000000000000000000000000815260040161071790612ffe565b60405180910390fd5b6004600083815260200190815260200160002060009054906101000a900473ffffffffffffffffffffffffffffffffffffffff169050919050565b600061076682610e0b565b90508073ffffffffffffffffffffffffffffffffffffffff168373ffffffffffffffffffffffffffffffffffffffff1614156107d7576040517f08c379a00000000000000000000000000000000000000000000000000000000081526004016107ce9061305e565b60405180910390fd5b8073ffffffffffffffffffffffffffffffffffffffff166107f66115ff565b73ffffffffffffffffffffffffffffffffffffffff16148061082557506108248161081f6115ff565b61139d565b5b610864576040517f08c379a000000000000000000000000000000000000000000000000000000000815260040161085b90612f7e565b60405180910390fd5b61086e8383611607565b505050565b3373ffffffffffffffffffffffffffffffffffffffff1661089382610e0b565b73ffffffffffffffffffffffffffffffffffffffff16146108b357600080fd5b6000600982815481106108ef577f4e487b7100000000000000000000000000000000000000000000000000000000600052603260045260246000fd5b9060005260206000209060040201905080600301600081819054906101000a900460ff168092919061092090613420565b91906101000a81548160ff021916908360ff160217905550505050565b6060600061094a83610ebd565b67ffffffffffffffff811115610989577f4e487b7100000000000000000000000000000000000000000000000000000000600052604160045260246000fd5b6040519080825280602002602001820160405280156109c257816020015b6109af612427565b8152602001906001900390816109a75790505b5090506000805b600980549050811015610bab578473ffffffffffffffffffffffffffffffffffffffff166109f682610e0b565b73ffffffffffffffffffffffffffffffffffffffff161415610b985760098181548110610a4c577f4e487b7100000000000000000000000000000000000000000000000000000000600052603260045260246000fd5b90600052602060002090600402016040518060a0016040529081600082018054610a7590613374565b80601f0160208091040260200160405190810160405280929190818152602001828054610aa190613374565b8015610aee5780601f10610ac357610100808354040283529160200191610aee565b820191906000526020600020905b815481529060010190602001808311610ad157829003601f168201915b5050505050815260200160018201548152602001600282015481526020016003820160009054906101000a900460ff1660ff1660ff1681526020016003820160019054906101000a900460ff1660ff1660ff1681525050838381518110610b7e577f4e487b7100000000000000000000000000000000000000000000000000000000600052603260045260246000fd5b60200260200101819052508180610b94906133d7565b9250505b8080610ba3906133d7565b9150506109c9565b508192505050919050565b610bc7610bc16115ff565b826116c0565b610c06576040517f08c379a0000000000000000000000000000000000000000000000000000000008152600401610bfd9061307e565b60405180910390fd5b610c1183838361179e565b505050565b60098181548110610c2657600080fd5b9060005260206000209060040201600091509050806000018054610c4990613374565b80601f0160208091040260200160405190810160405280929190818152602001828054610c7590613374565b8015610cc25780601f10610c9757610100808354040283529160200191610cc2565b820191906000526020600020905b815481529060010190602001808311610ca557829003601f168201915b5050505050908060010154908060020154908060030160009054906101000a900460ff16908060030160019054906101000a900460ff16905085565b610d066115ff565b73ffffffffffffffffffffffffffffffffffffffff16610d24610ffd565b73ffffffffffffffffffffffffffffffffffffffff1614610d7a576040517f08c379a0000000000000000000000000000000000000000000000000000000008152600401610d719061301e565b60405180910390fd5b6000610d84610ffd565b90508073ffffffffffffffffffffffffffffffffffffffff166108fc479081150290604051600060405180830381858888f19350505050158015610dcc573d6000803e3d6000fd5b5050565b600854341015610ddf57600080fd5b610de881611a05565b50565b610e0683838360405180602001604052806000815250611155565b505050565b6000806002600084815260200190815260200160002060009054906101000a900473ffffffffffffffffffffffffffffffffffffffff169050600073ffffffffffffffffffffffffffffffffffffffff168173ffffffffffffffffffffffffffffffffffffffff161415610eb4576040517f08c379a0000000000000000000000000000000000000000000000000000000008152600401610eab90612fbe565b60405180910390fd5b80915050919050565b60008073ffffffffffffffffffffffffffffffffffffffff168273ffffffffffffffffffffffffffffffffffffffff161415610f2e576040517f08c379a0000000000000000000000000000000000000000000000000000000008152600401610f2590612f9e565b60405180910390fd5b600360008373ffffffffffffffffffffffffffffffffffffffff1673ffffffffffffffffffffffffffffffffffffffff168152602001908152602001600020549050919050565b610f7d6115ff565b73ffffffffffffffffffffffffffffffffffffffff16610f9b610ffd565b73ffffffffffffffffffffffffffffffffffffffff1614610ff1576040517f08c379a0000000000000000000000000000000000000000000000000000000008152600401610fe89061301e565b60405180910390fd5b610ffb6000611b78565b565b6000600660009054906101000a900473ffffffffffffffffffffffffffffffffffffffff16905090565b61102f6115ff565b73ffffffffffffffffffffffffffffffffffffffff1661104d610ffd565b73ffffffffffffffffffffffffffffffffffffffff16146110a3576040517f08c379a000000000000000000000000000000000000000000000000000000000815260040161109a9061301e565b60405180910390fd5b8060088190555050565b6060600180546110bc90613374565b80601f01602080910402602001604051908101604052809291908181526020018280546110e890613374565b80156111355780601f1061110a57610100808354040283529160200191611135565b820191906000526020600020905b81548152906001019060200180831161111857829003601f168201915b5050505050905090565b61115161114a6115ff565b8383611c3e565b5050565b6111666111606115ff565b836116c0565b6111a5576040517f08c379a000000000000000000000000000000000000000000000000000000000815260040161119c9061307e565b60405180910390fd5b6111b184848484611dab565b50505050565b60606111c282611593565b611201576040517f08c379a00000000000000000000000000000000000000000000000000000000081526004016111f89061303e565b60405180910390fd5b600061120b611e07565b9050600081511161122b5760405180602001604052806000815250611256565b8061123584611e1e565b604051602001611246929190612d2e565b6040516020818303038152906040525b915050919050565b60606009805480602002602001604051908101604052809291908181526020016000905b8282101561139457838290600052602060002090600402016040518060a00160405290816000820180546112b590613374565b80601f01602080910402602001604051908101604052809291908181526020018280546112e190613374565b801561132e5780601f106113035761010080835404028352916020019161132e565b820191906000526020600020905b81548152906001019060200180831161131157829003601f168201915b5050505050815260200160018201548152602001600282015481526020016003820160009054906101000a900460ff1660ff1660ff1681526020016003820160019054906101000a900460ff1660ff1660ff168152505081526020019060010190611282565b50505050905090565b6000600560008473ffffffffffffffffffffffffffffffffffffffff1673ffffffffffffffffffffffffffffffffffffffff16815260200190815260200160002060008373ffffffffffffffffffffffffffffffffffffffff1673ffffffffffffffffffffffffffffffffffffffff16815260200190815260200160002060009054906101000a900460ff16905092915050565b6114396115ff565b73ffffffffffffffffffffffffffffffffffffffff16611457610ffd565b73ffffffffffffffffffffffffffffffffffffffff16146114ad576040517f08c379a00000000000000000000000000000000000000000000000000000000081526004016114a49061301e565b60405180910390fd5b600073ffffffffffffffffffffffffffffffffffffffff168173ffffffffffffffffffffffffffffffffffffffff16141561151d576040517f08c379a000000000000000000000000000000000000000000000000000000000815260040161151490612ebe565b60405180910390fd5b61152681611b78565b50565b60007f01ffc9a7000000000000000000000000000000000000000000000000000000007bffffffffffffffffffffffffffffffffffffffffffffffffffffffff1916827bffffffffffffffffffffffffffffffffffffffffffffffffffffffff1916149050919050565b60008073ffffffffffffffffffffffffffffffffffffffff166002600084815260200190815260200160002060009054906101000a900473ffffffffffffffffffffffffffffffffffffffff1673ffffffffffffffffffffffffffffffffffffffff1614159050919050565b600033905090565b816004600083815260200190815260200160002060006101000a81548173ffffffffffffffffffffffffffffffffffffffff021916908373ffffffffffffffffffffffffffffffffffffffff160217905550808273ffffffffffffffffffffffffffffffffffffffff1661167a83610e0b565b73ffffffffffffffffffffffffffffffffffffffff167f8c5be1e5ebec7d5bd14f71427d1e84f3dd0314c0f7b2291e5b200ac8c7c3b92560405160405180910390a45050565b60006116cb82611593565b61170a576040517f08c379a000000000000000000000000000000000000000000000000000000000815260040161170190612f5e565b60405180910390fd5b600061171583610e0b565b90508073ffffffffffffffffffffffffffffffffffffffff168473ffffffffffffffffffffffffffffffffffffffff1614806117575750611756818561139d565b5b8061179557508373ffffffffffffffffffffffffffffffffffffffff1661177d846106d6565b73ffffffffffffffffffffffffffffffffffffffff16145b91505092915050565b8273ffffffffffffffffffffffffffffffffffffffff166117be82610e0b565b73ffffffffffffffffffffffffffffffffffffffff1614611814576040517f08c379a000000000000000000000000000000000000000000000000000000000815260040161180b90612ede565b60405180910390fd5b600073ffffffffffffffffffffffffffffffffffffffff168273ffffffffffffffffffffffffffffffffffffffff161415611884576040517f08c379a000000000000000000000000000000000000000000000000000000000815260040161187b90612f1e565b60405180910390fd5b61188f838383611fcb565b61189a600082611607565b6001600360008573ffffffffffffffffffffffffffffffffffffffff1673ffffffffffffffffffffffffffffffffffffffff16815260200190815260200160002060008282546118ea919061327d565b925050819055506001600360008473ffffffffffffffffffffffffffffffffffffffff1673ffffffffffffffffffffffffffffffffffffffff168152602001908152602001600020600082825461194191906131f6565b92505081905550816002600083815260200190815260200160002060006101000a81548173ffffffffffffffffffffffffffffffffffffffff021916908373ffffffffffffffffffffffffffffffffffffffff160217905550808273ffffffffffffffffffffffffffffffffffffffff168473ffffffffffffffffffffffffffffffffffffffff167fddf252ad1be2c89b69c2b068fc378daa952ba7f163c4a11628f55a4df523b3ef60405160405180910390a4611a00838383611fd0565b505050565b6000611a116064611fd5565b90506000611a25662386f26fc10000611fd5565b905060006040518060a001604052808581526020016007548152602001838152602001600160ff1681526020018460ff16815250905060098190806001815401808255809150506001900390600052602060002090600402016000909190919091506000820151816000019080519060200190611aa392919061245c565b50602082015181600101556040820151816002015560608201518160030160006101000a81548160ff021916908360ff16021790555060808201518160030160016101000a81548160ff021916908360ff1602179055505050611b083360075461201a565b3373ffffffffffffffffffffffffffffffffffffffff167feb67298f50c9d9a08ce0fbc65202f5830fc2c0a1624001f497fbab77f4418ad660075484604051611b529291906130b9565b60405180910390a260076000815480929190611b6d906133d7565b919050555050505050565b6000600660009054906101000a900473ffffffffffffffffffffffffffffffffffffffff16905081600660006101000a81548173ffffffffffffffffffffffffffffffffffffffff021916908373ffffffffffffffffffffffffffffffffffffffff1602179055508173ffffffffffffffffffffffffffffffffffffffff168173ffffffffffffffffffffffffffffffffffffffff167f8be0079c531659141344cd1fd0a4f28419497f9722a3daafe3b4186f6b6457e060405160405180910390a35050565b8173ffffffffffffffffffffffffffffffffffffffff168373ffffffffffffffffffffffffffffffffffffffff161415611cad576040517f08c379a0000000000000000000000000000000000000000000000000000000008152600401611ca490612f3e565b60405180910390fd5b80600560008573ffffffffffffffffffffffffffffffffffffffff1673ffffffffffffffffffffffffffffffffffffffff16815260200190815260200160002060008473ffffffffffffffffffffffffffffffffffffffff1673ffffffffffffffffffffffffffffffffffffffff16815260200190815260200160002060006101000a81548160ff0219169083151502179055508173ffffffffffffffffffffffffffffffffffffffff168373ffffffffffffffffffffffffffffffffffffffff167f17307eab39ab6107e8899845ad3d59bd9653f200f220920489ca2b5937696c3183604051611d9e9190612e07565b60405180910390a3505050565b611db684848461179e565b611dc284848484612038565b611e01576040517f08c379a0000000000000000000000000000000000000000000000000000000008152600401611df890612e9e565b60405180910390fd5b50505050565b606060405180602001604052806000815250905090565b60606000821415611e66576040518060400160405280600181526020017f30000000000000000000000000000000000000000000000000000000000000008152509050611fc6565b600082905060005b60008214611e98578080611e81906133d7565b915050600a82611e91919061324c565b9150611e6e565b60008167ffffffffffffffff811115611eda577f4e487b7100000000000000000000000000000000000000000000000000000000600052604160045260246000fd5b6040519080825280601f01601f191660200182016040528015611f0c5781602001600182028036833780820191505090505b5090505b60008514611fbf57600182611f25919061327d565b9150600a85611f349190613478565b6030611f4091906131f6565b60f81b818381518110611f7c577f4e487b7100000000000000000000000000000000000000000000000000000000600052603260045260246000fd5b60200101907effffffffffffffffffffffffffffffffffffffffffffffffffffffffffffff1916908160001a905350600a85611fb8919061324c565b9450611f10565b8093505050505b919050565b505050565b505050565b6000804233604051602001611feb929190612d52565b6040516020818303038152906040528051906020012060001c905082816120129190613478565b915050919050565b6120348282604051806020016040528060008152506121cf565b5050565b60006120598473ffffffffffffffffffffffffffffffffffffffff1661222a565b156121c2578373ffffffffffffffffffffffffffffffffffffffff1663150b7a026120826115ff565b8786866040518563ffffffff1660e01b81526004016120a49493929190612d99565b602060405180830381600087803b1580156120be57600080fd5b505af19250505080156120ef57506040513d601f19601f820116820180604052508101906120ec9190612808565b60015b612172573d806000811461211f576040519150601f19603f3d011682016040523d82523d6000602084013e612124565b606091505b5060008151141561216a576040517f08c379a000000000000000000000000000000000000000000000000000000000815260040161216190612e9e565b60405180910390fd5b805181602001fd5b63150b7a0260e01b7bffffffffffffffffffffffffffffffffffffffffffffffffffffffff1916817bffffffffffffffffffffffffffffffffffffffffffffffffffffffff1916149150506121c7565b600190505b949350505050565b6121d9838361224d565b6121e66000848484612038565b612225576040517f08c379a000000000000000000000000000000000000000000000000000000000815260040161221c90612e9e565b60405180910390fd5b505050565b6000808273ffffffffffffffffffffffffffffffffffffffff163b119050919050565b600073ffffffffffffffffffffffffffffffffffffffff168273ffffffffffffffffffffffffffffffffffffffff1614156122bd576040517f08c379a00000000000000000000000000000000000000000000000000000000081526004016122b490612fde565b60405180910390fd5b6122c681611593565b15612306576040517f08c379a00000000000000000000000000000000000000000000000000000000081526004016122fd90612efe565b60405180910390fd5b61231260008383611fcb565b6001600360008473ffffffffffffffffffffffffffffffffffffffff1673ffffffffffffffffffffffffffffffffffffffff168152602001908152602001600020600082825461236291906131f6565b92505081905550816002600083815260200190815260200160002060006101000a81548173ffffffffffffffffffffffffffffffffffffffff021916908373ffffffffffffffffffffffffffffffffffffffff160217905550808273ffffffffffffffffffffffffffffffffffffffff16600073ffffffffffffffffffffffffffffffffffffffff167fddf252ad1be2c89b69c2b068fc378daa952ba7f163c4a11628f55a4df523b3ef60405160405180910390a461242360008383611fd0565b5050565b6040518060a00160405280606081526020016000815260200160008152602001600060ff168152602001600060ff1681525090565b82805461246890613374565b90600052602060002090601f01602090048101928261248a57600085556124d1565b82601f106124a357805160ff19168380011785556124d1565b828001600101855582156124d1579182015b828111156124d05782518255916020019190600101906124b5565b5b5090506124de91906124e2565b5090565b5b808211156124fb5760008160009055506001016124e3565b5090565b600061251261250d84613107565b6130e2565b90508281526020810184848401111561252a57600080fd5b612535848285613332565b509392505050565b600061255061254b84613138565b6130e2565b90508281526020810184848401111561256857600080fd5b612573848285613332565b509392505050565b60008135905061258a816139db565b92915050565b60008135905061259f816139f2565b92915050565b6000813590506125b481613a09565b92915050565b6000815190506125c981613a09565b92915050565b600082601f8301126125e057600080fd5b81356125f08482602086016124ff565b91505092915050565b600082601f83011261260a57600080fd5b813561261a84826020860161253d565b91505092915050565b60008135905061263281613a20565b92915050565b60006020828403121561264a57600080fd5b60006126588482850161257b565b91505092915050565b6000806040838503121561267457600080fd5b60006126828582860161257b565b92505060206126938582860161257b565b9150509250929050565b6000806000606084860312156126b257600080fd5b60006126c08682870161257b565b93505060206126d18682870161257b565b92505060406126e286828701612623565b9150509250925092565b6000806000806080858703121561270257600080fd5b60006127108782880161257b565b94505060206127218782880161257b565b935050604061273287828801612623565b925050606085013567ffffffffffffffff81111561274f57600080fd5b61275b878288016125cf565b91505092959194509250565b6000806040838503121561277a57600080fd5b60006127888582860161257b565b925050602061279985828601612590565b9150509250929050565b600080604083850312156127b657600080fd5b60006127c48582860161257b565b92505060206127d585828601612623565b9150509250929050565b6000602082840312156127f157600080fd5b60006127ff848285016125a5565b91505092915050565b60006020828403121561281a57600080fd5b6000612828848285016125ba565b91505092915050565b60006020828403121561284357600080fd5b600082013567ffffffffffffffff81111561285d57600080fd5b612869848285016125f9565b91505092915050565b60006020828403121561288457600080fd5b600061289284828501612623565b91505092915050565b60006128a78383612c65565b905092915050565b6128b8816132b1565b82525050565b6128cf6128ca826132b1565b61344a565b82525050565b60006128e082613179565b6128ea81856131a7565b9350836020820285016128fc85613169565b8060005b858110156129385784840389528151612919858261289b565b94506129248361319a565b925060208a01995050600181019050612900565b50829750879550505050505092915050565b612953816132c3565b82525050565b600061296482613184565b61296e81856131b8565b935061297e818560208601613341565b61298781613565565b840191505092915050565b600061299d8261318f565b6129a781856131c9565b93506129b7818560208601613341565b6129c081613565565b840191505092915050565b60006129d68261318f565b6129e081856131da565b93506129f0818560208601613341565b6129f981613565565b840191505092915050565b6000612a0f8261318f565b612a1981856131eb565b9350612a29818560208601613341565b80840191505092915050565b6000612a426032836131da565b9150612a4d82613583565b604082019050919050565b6000612a656026836131da565b9150612a70826135d2565b604082019050919050565b6000612a886025836131da565b9150612a9382613621565b604082019050919050565b6000612aab601c836131da565b9150612ab682613670565b602082019050919050565b6000612ace6024836131da565b9150612ad982613699565b604082019050919050565b6000612af16019836131da565b9150612afc826136e8565b602082019050919050565b6000612b14602c836131da565b9150612b1f82613711565b604082019050919050565b6000612b376038836131da565b9150612b4282613760565b604082019050919050565b6000612b5a602a836131da565b9150612b65826137af565b604082019050919050565b6000612b7d6029836131da565b9150612b88826137fe565b604082019050919050565b6000612ba06020836131da565b9150612bab8261384d565b602082019050919050565b6000612bc3602c836131da565b9150612bce82613876565b604082019050919050565b6000612be66020836131da565b9150612bf1826138c5565b602082019050919050565b6000612c09602f836131da565b9150612c14826138ee565b604082019050919050565b6000612c2c6021836131da565b9150612c378261393d565b604082019050919050565b6000612c4f6031836131da565b9150612c5a8261398c565b604082019050919050565b600060a0830160008301518482036000860152612c828282612992565b9150506020830151612c976020860182612cdb565b506040830151612caa6040860182612cdb565b506060830151612cbd6060860182612d10565b506080830151612cd06080860182612d10565b508091505092915050565b612ce48161331b565b82525050565b612cf38161331b565b82525050565b612d0a612d058261331b565b61346e565b82525050565b612d1981613325565b82525050565b612d2881613325565b82525050565b6000612d3a8285612a04565b9150612d468284612a04565b91508190509392505050565b6000612d5e8285612cf9565b602082019150612d6e82846128be565b6014820191508190509392505050565b6000602082019050612d9360008301846128af565b92915050565b6000608082019050612dae60008301876128af565b612dbb60208301866128af565b612dc86040830185612cea565b8181036060830152612dda8184612959565b905095945050505050565b60006020820190508181036000830152612dff81846128d5565b905092915050565b6000602082019050612e1c600083018461294a565b92915050565b60006020820190508181036000830152612e3c81846129cb565b905092915050565b600060a0820190508181036000830152612e5e81886129cb565b9050612e6d6020830187612cea565b612e7a6040830186612cea565b612e876060830185612d1f565b612e946080830184612d1f565b9695505050505050565b60006020820190508181036000830152612eb781612a35565b9050919050565b60006020820190508181036000830152612ed781612a58565b9050919050565b60006020820190508181036000830152612ef781612a7b565b9050919050565b60006020820190508181036000830152612f1781612a9e565b9050919050565b60006020820190508181036000830152612f3781612ac1565b9050919050565b60006020820190508181036000830152612f5781612ae4565b9050919050565b60006020820190508181036000830152612f7781612b07565b9050919050565b60006020820190508181036000830152612f9781612b2a565b9050919050565b60006020820190508181036000830152612fb781612b4d565b9050919050565b60006020820190508181036000830152612fd781612b70565b9050919050565b60006020820190508181036000830152612ff781612b93565b9050919050565b6000602082019050818103600083015261301781612bb6565b9050919050565b6000602082019050818103600083015261303781612bd9565b9050919050565b6000602082019050818103600083015261305781612bfc565b9050919050565b6000602082019050818103600083015261307781612c1f565b9050919050565b6000602082019050818103600083015261309781612c42565b9050919050565b60006020820190506130b36000830184612cea565b92915050565b60006040820190506130ce6000830185612cea565b6130db6020830184612cea565b9392505050565b60006130ec6130fd565b90506130f882826133a6565b919050565b6000604051905090565b600067ffffffffffffffff82111561312257613121613536565b5b61312b82613565565b9050602081019050919050565b600067ffffffffffffffff82111561315357613152613536565b5b61315c82613565565b9050602081019050919050565b6000819050602082019050919050565b600081519050919050565b600081519050919050565b600081519050919050565b6000602082019050919050565b600082825260208201905092915050565b600082825260208201905092915050565b600082825260208201905092915050565b600082825260208201905092915050565b600081905092915050565b60006132018261331b565b915061320c8361331b565b9250827fffffffffffffffffffffffffffffffffffffffffffffffffffffffffffffffff03821115613241576132406134a9565b5b828201905092915050565b60006132578261331b565b91506132628361331b565b925082613272576132716134d8565b5b828204905092915050565b60006132888261331b565b91506132938361331b565b9250828210156132a6576132a56134a9565b5b828203905092915050565b60006132bc826132fb565b9050919050565b60008115159050919050565b60007fffffffff0000000000000000000000000000000000000000000000000000000082169050919050565b600073ffffffffffffffffffffffffffffffffffffffff82169050919050565b6000819050919050565b600060ff82169050919050565b82818337600083830152505050565b60005b8381101561335f578082015181840152602081019050613344565b8381111561336e576000848401525b50505050565b6000600282049050600182168061338c57607f821691505b602082108114156133a05761339f613507565b5b50919050565b6133af82613565565b810181811067ffffffffffffffff821117156133ce576133cd613536565b5b80604052505050565b60006133e28261331b565b91507fffffffffffffffffffffffffffffffffffffffffffffffffffffffffffffffff821415613415576134146134a9565b5b600182019050919050565b600061342b82613325565b915060ff82141561343f5761343e6134a9565b5b600182019050919050565b60006134558261345c565b9050919050565b600061346782613576565b9050919050565b6000819050919050565b60006134838261331b565b915061348e8361331b565b92508261349e5761349d6134d8565b5b828206905092915050565b7f4e487b7100000000000000000000000000000000000000000000000000000000600052601160045260246000fd5b7f4e487b7100000000000000000000000000000000000000000000000000000000600052601260045260246000fd5b7f4e487b7100000000000000000000000000000000000000000000000000000000600052602260045260246000fd5b7f4e487b7100000000000000000000000000000000000000000000000000000000600052604160045260246000fd5b6000601f19601f8301169050919050565b60008160601b9050919050565b7f4552433732313a207472616e7366657220746f206e6f6e20455243373231526560008201527f63656976657220696d706c656d656e7465720000000000000000000000000000602082015250565b7f4f776e61626c653a206e6577206f776e657220697320746865207a65726f206160008201527f6464726573730000000000000000000000000000000000000000000000000000602082015250565b7f4552433732313a207472616e736665722066726f6d20696e636f72726563742060008201527f6f776e6572000000000000000000000000000000000000000000000000000000602082015250565b7f4552433732313a20746f6b656e20616c7265616479206d696e74656400000000600082015250565b7f4552433732313a207472616e7366657220746f20746865207a65726f2061646460008201527f7265737300000000000000000000000000000000000000000000000000000000602082015250565b7f4552433732313a20617070726f766520746f2063616c6c657200000000000000600082015250565b7f4552433732313a206f70657261746f7220717565727920666f72206e6f6e657860008201527f697374656e7420746f6b656e0000000000000000000000000000000000000000602082015250565b7f4552433732313a20617070726f76652063616c6c6572206973206e6f74206f7760008201527f6e6572206e6f7220617070726f76656420666f7220616c6c0000000000000000602082015250565b7f4552433732313a2062616c616e636520717565727920666f7220746865207a6560008201527f726f206164647265737300000000000000000000000000000000000000000000602082015250565b7f4552433732313a206f776e657220717565727920666f72206e6f6e657869737460008201527f656e7420746f6b656e0000000000000000000000000000000000000000000000602082015250565b7f4552433732313a206d696e7420746f20746865207a65726f2061646472657373600082015250565b7f4552433732313a20617070726f76656420717565727920666f72206e6f6e657860008201527f697374656e7420746f6b656e0000000000000000000000000000000000000000602082015250565b7f4f776e61626c653a2063616c6c6572206973206e6f7420746865206f776e6572600082015250565b7f4552433732314d657461646174613a2055524920717565727920666f72206e6f60008201527f6e6578697374656e7420746f6b656e0000000000000000000000000000000000602082015250565b7f4552433732313a20617070726f76616c20746f2063757272656e74206f776e6560008201527f7200000000000000000000000000000000000000000000000000000000000000602082015250565b7f4552433732313a207472616e736665722063616c6c6572206973206e6f74206f60008201527f776e6572206e6f7220617070726f766564000000000000000000000000000000602082015250565b6139e4816132b1565b81146139ef57600080fd5b50565b6139fb816132c3565b8114613a0657600080fd5b50565b613a12816132cf565b8114613a1d57600080fd5b50565b613a298161331b565b8114613a3457600080fd5b5056fea2646970667358221220fd0a8e33e4d51167b696312954090b0a0a0022575b9539d42be1d35c5b2ee49864736f6c63430008010033",
  "immutableReferences": {},
  "source": "// SPDX-License-Identifier: MIT\r\n\r\npragma solidity ^0.8.1;\r\n\r\nimport \"@openzeppelin/contracts/token/ERC721/ERC721.sol\";\r\nimport \"@openzeppelin/contracts/access/Ownable.sol\";\r\n\r\ncontract NftToken is ERC721, Ownable {\r\n  constructor(string memory _name, string memory _symbol)\r\n    ERC721(_name, _symbol)\r\n  {}\r\n\r\n  uint256 COUNTER;\r\n\r\n  uint256 fee = 0.01 ether;\r\n\r\n  struct Nft {\r\n    string name;\r\n    uint256 id;\r\n    uint256 dna;\r\n    uint8 level;\r\n    uint8 rarity;\r\n  }\r\n\r\n  Nft[] public nfts;\r\n\r\n  event NewNft(address indexed owner, uint256 id, uint256 dna);\r\n\r\n  // Helpers\r\n  function _createRandomNum(uint256 _mod) internal view returns (uint256) {\r\n    uint256 randomNum = uint256(\r\n      keccak256(abi.encodePacked(block.timestamp, msg.sender))\r\n    );\r\n    return randomNum % _mod;\r\n  }\r\n\r\n  function updateFee(uint256 _fee) external onlyOwner {\r\n    fee = _fee;\r\n  }\r\n\r\n  function withdraw() external payable onlyOwner {\r\n    address payable _owner = payable(owner());\r\n    _owner.transfer(address(this).balance);\r\n  }\r\n\r\n  // Creation\r\n  function _createNft(string memory _name) internal {\r\n    uint8 randRarity = uint8(_createRandomNum(100));\r\n    uint256 randDna = _createRandomNum(10**16);\r\n    Nft memory newNft = Nft(_name, COUNTER, randDna, 1, randRarity);\r\n    nfts.push(newNft);\r\n    _safeMint(msg.sender, COUNTER);\r\n    emit NewNft(msg.sender, COUNTER, randDna);\r\n    COUNTER++;\r\n  }\r\n\r\n  function createRandomNft(string memory _name) public payable {\r\n    require(msg.value >= fee);\r\n    _createNft(_name);\r\n  }\r\n\r\n  // Getters\r\n  function getNfts() public view returns (Nft[] memory) {\r\n    return nfts;\r\n  }\r\n\r\n  function getOwnerNfts(address _owner) public view returns (Nft[] memory) {\r\n    Nft[] memory result = new Nft[](balanceOf(_owner));\r\n    uint256 counter = 0;\r\n    for (uint256 i = 0; i < nfts.length; i++) {\r\n      if (ownerOf(i) == _owner) {\r\n        result[counter] = nfts[i];\r\n        counter++;\r\n      }\r\n    }\r\n    return result;\r\n  }\r\n\r\n  // Actions\r\n  function levelUp(uint256 _nftId) public {\r\n    require(ownerOf(_nftId) == msg.sender);\r\n    Nft storage nft = nfts[_nftId];\r\n    nft.level++;\r\n  }\r\n}",
  "sourcePath": "/Users/dibcompany/nft/nft-game/contracts/NftToken.sol",
  "compiler": {
    "name": "solc",
    "version": "0.8.1+commit.df193b15.Emscripten.clang"
  },
  "schemaVersion": "3.4.7",
  "updatedAt": "2022-05-08T14:25:45.705Z",
  "networkType": "ethereum",
  "devdoc": {
    "kind": "dev",
    "methods": {
      "approve(address,uint256)": {
        "details": "See {IERC721-approve}."
      },
      "balanceOf(address)": {
        "details": "See {IERC721-balanceOf}."
      },
      "getApproved(uint256)": {
        "details": "See {IERC721-getApproved}."
      },
      "isApprovedForAll(address,address)": {
        "details": "See {IERC721-isApprovedForAll}."
      },
      "name()": {
        "details": "See {IERC721Metadata-name}."
      },
      "owner()": {
        "details": "Returns the address of the current owner."
      },
      "ownerOf(uint256)": {
        "details": "See {IERC721-ownerOf}."
      },
      "renounceOwnership()": {
        "details": "Leaves the contract without owner. It will not be possible to call `onlyOwner` functions anymore. Can only be called by the current owner. NOTE: Renouncing ownership will leave the contract without an owner, thereby removing any functionality that is only available to the owner."
      },
      "safeTransferFrom(address,address,uint256)": {
        "details": "See {IERC721-safeTransferFrom}."
      },
      "safeTransferFrom(address,address,uint256,bytes)": {
        "details": "See {IERC721-safeTransferFrom}."
      },
      "setApprovalForAll(address,bool)": {
        "details": "See {IERC721-setApprovalForAll}."
      },
      "supportsInterface(bytes4)": {
        "details": "See {IERC165-supportsInterface}."
      },
      "symbol()": {
        "details": "See {IERC721Metadata-symbol}."
      },
      "tokenURI(uint256)": {
        "details": "See {IERC721Metadata-tokenURI}."
      },
      "transferFrom(address,address,uint256)": {
        "details": "See {IERC721-transferFrom}."
      },
      "transferOwnership(address)": {
        "details": "Transfers ownership of the contract to a new account (`newOwner`). Can only be called by the current owner."
      }
    },
    "version": 1
  },
  "userdoc": {
    "kind": "user",
    "methods": {},
    "version": 1
  }
}